:020000040800F2
:100000001807002089010008BF1400082713000802
:10001000BD1400088F020008FF1500080000000052
:10002000000000000000000000000000C3140008F1
:100030009D02000800000000C1140008C51400085B
:10004000A3010008A3010008A3010008A301000800
:10005000A3010008A3010008A3010008A3010008F0
:10006000A3010008A3010008A3010008A3010008E0
:10007000A3010008A3010008A3010008A3010008D0
:10008000A3010008A3010008A3010008A3010008C0
:10009000A301000891020008A3010008A3010008C1
:1000A000A3010008A3010008A3010008A3010008A0
:1000B000A3010008A3010008A3010008A301000890
:1000C000A3010008A3010008A3010008A301000880
:1000D000A3010008A3010008A3010008A301000870
:1000E000A3010008A3010008A301000800F002F822
:1000F00000F03AF80AA090E8000C82448344AAF188
:100100000107DA4501D100F02FF8AFF2090EBAE885
:100110000F0013F0010F18BFFB1A43F0010318473B
:100120005016000070160000103A24BF78C878C13D
:10013000FAD8520724BF30C830C144BF04680C60ED
:10014000704700000023002400250026103A28BF35
:1001500078C1FBD8520728BF30C148BF0B60704739
:100160001FB51FBD10B510BD00F058F81146FFF7C0
:10017000F7FF01F055FA00F076F803B4FFF7F2FF4D
:1001800003BC00F07DF8000009488047094800479B
:10019000FEE7FEE7FEE7FEE7FEE7FEE7FEE7FEE737
:1001A000FEE7FEE704480549054A064B7047000094
:1001B00027150008ED00000818010020180700208E
:1001C00018030020180300204FF0000200B513466A
:1001D00094469646203922BFA0E80C50A0E80C5067
:1001E000B1F12001BFF4F7AF090728BFA0E80C5018
:1001F00048BF0CC05DF804EB890028BF40F8042B11
:1002000008BF704748BF20F8022B11F0804F18BF7D
:1002100000F8012B7047704770477047754600F033
:100220002BF8AE4605006946534620F00700854688
:1002300018B020B5FFF7B6FFBDE820404FF000062C
:100240004FF000074FF000084FF0000B21F00701BE
:10025000AC46ACE8C009ACE8C009ACE8C009ACE801
:10026000C0098D46704710B50446AFF300802046A4
:10027000BDE81040FFF781BF00487047B80000207C
:1002800001491820ABBEFEE7260002007047FEE7DA
:10029000014800F003B900002C000020704790F8DE
:1002A0002020012A07D0022A05D0416A41F480218A
:1002B000416201207047006842690A4342610020A0
:1002C0007047000010B590F820300268012B07D06D
:1002D000022B05D0416A41F480214162012010BD0A
:1002E000D2F8000240F00100C2F80002087D00F0E0
:1002F0001F0301209840D2F81C328343C2F81C32FD
:10030000CB69B3B9D2F80C328343C2F80C328C8972
:100310004B6864F31F434C6902EBC404C4F84032D9
:100320000C890B6864F31F434C6902EBC404C4F8E6
:100330004432CB69012B16D1D2F80C320343C2F8F8
:100340000C320C884B6864F31F434C6902EBC40405
:10035000C4F840320C89CB6864F31F434C6902EB4C
:10036000C404C4F844328B69002BD2F804320FD095
:1003700053EA0003C2F804320B69002BD2F814329E
:1003800008D00343C2F81432096A012904D008E0F6
:100390008343EFE78343F5E7D2F81C120143C2F829
:1003A0001C12D2F8000220F00100C2F80002002066
:1003B00010BD704730B590F82040012C05D0022CBC
:1003C00003D0416A41F480215DE00468002955D0E2
:1003D0002469A40754D04FF4D874056804EB0114C1
:1003E0002D5915F00405956005682D594ED0ED087E
:1003F000556005682C5904F00204D4604FF4DA7497
:10040000056804EB01142D5905F00F051561056809
:100410002D59C5F30725956105682C59240C5461A5
:100420004FF4DC72046802EB0112A4581C700468DB
:10043000A458240A5C700468A458240C9C700468B6
:10044000A258120EDA704FF4DE72046802EB011249
:10045000A4581C710468A458240A5C710468A45848
:10046000240C9C710468A258120EDA71006881B1E4
:10047000016941F020010161002030BDE468A8E776
:10048000416A41F400114162012030BD6D0D1560DB
:10049000AFE7C16841F02001C160EDE72DE9F05FF1
:1004A0000546006800244669D0F804908768D0F8B3
:1004B0000CB0D0F810A0D0F81880F10748D0F90798
:1004C00014D001218160B80703D5284600F0FDF95A
:1004D0000CE0780702D54FF4006407E0380702D536
:1004E0004FF4805402E0284600F0EEF9F80516D5E6
:1004F00029684FF480708860B80503D5284600F05D
:10050000E6F90CE0780502D544F4005407E038051C
:1005100002D544F4804402E0284600F0D7F9F803FD
:1005200016D529684FF480308860B80303D5284673
:1005300000F0CFF90CE0780302D544F4004407E062
:10054000380302D544F4803402E0284600F0C0F9B4
:10055000300707D55FEACB6004D52968102044F442
:100560000074C86070074FF0080707D55FEA0B708A
:1005700004D52868C760284600F05AF9B00706D5A8
:100580002868C068800702D0284600F052F970063B
:1005900007D55FEACA6004D52968102044F4806456
:1005A0000861B00607D55FEA0A7004D528680761BC
:1005B000284600F03FF9F00606D528680069800754
:1005C00002D0284600F038F9B00308D55FEAC960C8
:1005D00005D5296810204860284600F047F9F00347
:1005E00007D55FEA097004D528684760284600F0FF
:1005F00071F9300446D55FEA497040D5F00504D55D
:100600005FEAC87001D044F00104B00504D55FEA88
:10061000887001D544F00204700504D55FEA487083
:1006200001D544F00404300529D518F0700F26D008
:1006300008F07000402815D006DC102809D02028CA
:100640000AD0302816D10AE050280ED0602811D1E7
:100650000EE044F008040DE044F010040AE044F019
:10066000200407E044F0400404E044F0800401E08A
:1006700044F480742868816921F0700181612968DF
:1006800004204860002C05D0686A20436862284630
:10069000FFF78FFEBDE8F09F70B5040003D094F81B
:1006A000200010B104E0012070BD204600F082F867
:1006B0002068016821F00201016000F01DFA054682
:1006C000052604E000F018FA401B0A2811D820681B
:1006D00040688007F6D42068016841F0010101609C
:1006E00000F00AFA05460BE000F006FA401B0A2863
:1006F00006D9606A40F40030606284F82060D2E776
:1007000020684068C007EFD0207E0128206801687B
:100710003DD021F080010160607E012820680168E1
:1007200038D021F040010160A07E012820680168D6
:1007300033D021F020010160E07E012820680168AB
:100740002ED041F010010160207F0128206801684F
:1007500029D021F008010160607F0128206801682C
:1007600024D021F004010160D4E902010843D4E956
:100770000412114308436168491E08432168C86197
:1007800000206062012084F82000002070BD41F04C
:100790008001C0E741F04001C5E741F02001CAE710
:1007A00021F01001CFE741F00801D4E741F0040146
:1007B000D9E7000010B586B00021009101910291A7
:1007C00003910068174988422AD11748C16941F04E
:1007D0000071C161C16901F000710491816941F04A
:1007E000040181618069114C00F0040004904FF411
:1007F000006000906946204600F080F8A014009048
:1008000002200190032003906946204600F076F80C
:1008100000221146152000F0DBF9152000F0CAF97E
:1008200006B010BD00640040001002400008014006
:10083000704770477047000010B50A4B0A4A012103
:10084000FFF7B8FD0848006801280AD10548054CA3
:10085000143C90F90000E060E06800F023FF012004
:10086000A06010BD1400002054000020704700005C
:1008700070B5044690F82000012804D0606A40F466
:100880000020606218E0022084F8200020680168DF
:1008900021F00101016000F02FF905460EE000BFD4
:1008A00000F02AF9401B0A2808D9606A40F4003099
:1008B0006062052084F82000012070BD2068406837
:1008C000C007EDD1606270BD7047704770477047D8
:1008D000704770477047000070B5044600F00CF98F
:1008E0000546601C02D004480078044400F004F976
:1008F000401BA042FAD370BD1C0000202DE9F84F28
:10090000DFF8B891002409F1040A0AF1040B234628
:100910000F270BF1040EC9E00125A5402A40AA4289
:100920007DD1674ED1F804C0ACEB0608B44532D097
:1009300014DCBCF1030F3AD009DCBCF1000F2AD063
:10094000BCF1010F1CD0BCF1020F31D11DE0BCF194
:10095000110F17D0BCF1120F2AD119E0B8F5881F7A
:1009600019D006DCB8F5803F15D0B8F5801F1FD12F
:1009700011E0B8F5001F0ED0B8F5041F18D10AE039
:10098000CB6815E0CB681B1D12E0CB6808330FE085
:10099000CB680C330CE08B682BB1012B4FF00803B4
:1009A00003D0456104E0042302E0056100E0002378
:1009B000FF2A01D8064601E000F104064FEA84054B
:1009C00001D9A5F12005D6F8008007FA05FC28EA30
:1009D0000C0803FA05F548EA0508C6F800804D68DA
:1009E000ED0062D5374DAE6946F00106AE61AD69E6
:1009F00024F0030605F001050095334D06EB050CC8
:100A0000DCF80850A607360F07FA06F825EA0805AD
:100A1000DFF8B880404503D14FF0000817E044E00C
:100A2000DFF8AC80404502D14FF001080FE0DFF85D
:100A3000A480404502D14FF0020808E0DFF898801A
:100A4000404502D14FF0030801E04FF0040808FAD6
:100A500006F848EA0508CCF808804D68D9F8006027
:100A6000ED034D4601D5164300E096432E604D68D8
:100A7000DAF80060AD03554601D5164300E0964311
:100A80002E604D68DBF80060ED025D4601D516432F
:100A900000E096432E604D68DEF80060AD027546BA
:100AA00001D5164300E096432E60641C0D682A466B
:100AB000E5407FF431AFBDE8F88F0000000401404D
:100AC0000000111000100240000001400008014029
:100AD000000C01400010014000140140C26821EAEE
:100AE00002030A4043EA0241016170470AB1016111
:100AF00070470904FBE70000014880687047000068
:100B00001C0000200248816802781144816070470F
:100B10001C000020074810B5016841F01001016079
:100B2000032000F075F8002000F006F800F024F82B
:100B3000002010BD0020024070B50D4D04464FF45A
:100B40007A712878B1FBF0F00A490968B1FBF0F03E
:100B500000F0CCFA48B9102C07D200222146501ED2
:100B600000F036F800206C6070BD012070BD000000
:100B70001C000020280000200C4808B5816941F0C5
:100B800001018161816901F001010091C16941F0B8
:100B90008051C161C06900F08050009004484168F4
:100BA00021F0E06141F00071416008BD0010024099
:100BB00000000140002809DB00F01F0201219140E4
:100BC0004009800000F1E020C0F8001170470000EB
:100BD000F0B40E4B1B680C46C3F30223C3F10705A8
:100BE000042D00D90425191D072901D2002300E096
:100BF000DB1E012606FA05F1491E214099409E4060
:100C0000761E16403143F0BC00F0FABC0CED00E05B
:100C1000064900F0070208684FF6FF03184040EA53
:100C20000220034A10430860704700000CED00E00A
:100C30000000FA052DE9F0470F46050061D0434E4C
:100C4000306800F00700B84209D2306820F0070091
:100C500038433060306800F00700B84251D128684E
:100C60003B4C810712D5400703D5606840F4E06033
:100C700060602878000703D5606840F460506060C9
:100C80006068A96820F0F000084360602878C00719
:100C900028D06868012810D02168022810D0890760
:100CA00000292EDA616821F0030101436160FFF73A
:100CB00023FF804641F288390DE021688903EFE780
:100CC0008901EDE7FFF718FFA0EB0801494502D9BC
:100CD0000320BDE8F0876068696800F00C00B0EBA5
:100CE000810FEFD1306800F00700B8420BD93068AF
:100CF00020F0070038433060306800F00700B84249
:100D000001D00120E5E72878400705D56068E9684B
:100D100020F4E060084360602878000706D560682A
:100D2000296920F4605040EAC100606000F018F8C2
:100D30006168084AC1F30311515CC8400649086064
:100D400006480068FFF7F8FE0020C2E700200240D6
:100D5000001002406017000828000020200000203A
:100D600012A185B00FC98DE80F0014A0144A0068C5
:100D700004905168134801F00C03042B10D0082B89
:100D80000ED1C1F38343C9031DF803000AD551688E
:100D900004AAC1F34041515C0A4A5043B0FBF1F050
:100DA00005B0704708494843FAE70000020304050C
:100DB000060708090A0B0C0D0E0F101001020000A7
:100DC0000010024000127A0000093D002DE9F84FA2
:100DD000040070D02078C04DC00749D06868C0F3C7
:100DE0008100012807D06868C0F38100022809D17A
:100DF0006868C00306D52868800339D56068002874
:100E0000E7D035E06068B0F5803F0BD010B1B0F5A9
:100E1000A02F11D0286820F480302860286820F4A2
:100E2000802002E0286840F480302860606890B13B
:100E3000FFF762FE06460AE0286840F4802028603A
:100E4000F0E700BFFFF758FE801B642873D82868BE
:100E50008003F7D50CE0FFF74FFE064605E000BF24
:100E6000FFF74AFE801B6428F0D828688003F7D477
:100E700020789A4E80074FF001094FF0000839D5CD
:100E8000686810F00C0F07D06868C0F38100022872
:100E900009D16868C00306D42868800714D5206982
:100EA000012808D110E02069B0B1C6F80090FFF722
:100EB00023FE074605E00AE1FFF71EFEC01B0228DD
:100EC000C4D828688007F7D52868616920F0F80041
:100ED00040EAC10028600DE0C6F80080FFF70CFE74
:100EE000074604E0FFF708FEC01B022823D8286845
:100EF0008007F7D4207800072CD57948A169D9B1AB
:100F0000C0F80090FFF7F8FD074604E0FFF7F4FD96
:100F1000C01B02280FD8686A8007F7D571484FF4C4
:100F2000FA510068B0FBF1F0009000BF0098411E3C
:100F30000091FAD20EE080E0C0F80080FFF7DCFDFF
:100F4000074604E0FFF7D8FDC01B022875D8686A81
:100F50008007F7D42078400760D5E8690027C000F3
:100F600008D4E86940F08050E861E869012700F0A2
:100F7000805000905C480168C90513D4016883461D
:100F800041F480710160FFF7B7FD824606E000BFC3
:100F9000FFF7B2FDA0EB0A0064284ED8DBF8000092
:100FA000C005F5D5E06801280AD008B1052813D09E
:100FB000286A20F001002862286A20F0040002E07C
:100FC000286A40F001002862E06841F2883B98B14D
:100FD000FFF792FD82460BE0286A40F00400286289
:100FE000EEE700BFFFF788FDA0EB0A0159455AD88C
:100FF000286A8007F6D50CE0FFF77EFD824605E003
:10100000FFF77AFDA0EB0A0159454CD8286A800702
:10101000F6D41FB1E86920F08050E861E06988B338
:101020006968C1F38101022944D00228C6F86080B2
:1010300004D0FFF761FD044638E034E0FFF75CFDC3
:10104000074604E0FFF758FDC01B02282BD828688C
:101050008001F7D4206AB0F5803F05D16868A168A7
:1010600020F4003008436860D4E908010843696847
:1010700021F4741108436860C6F86090FFF73CFDE6
:10108000044606E025E000BFFFF736FD001B0228FE
:1010900009D828688001F7D51BE000BFFFF72CFDB9
:1010A000001B022802D90320BDE8F88F28688001C0
:1010B000F4D40EE00128F7D06868226A00F4803189
:1010C000914204D1616A00F47010884201D001207D
:1010D000EAE70020E8E7000000100240000042427A
:1010E00080044242280000200070004010B5401EDD
:1010F000B0F1807F01D3012010BD4FF0E02460618A
:101100000F21601700F07CFA0020A0610720206109
:10111000002010BD70B590F83C20012A26D0012493
:1011200080F83C40022280F83D2003685A689D68A0
:1011300022F070060A6832435A600D4B02689A42E8
:1011400008D0B2F1804F05D00A4B9A4202D00A4B28
:101150009A4204D1496825F080031943916080F8D0
:101160003D40002180F83C10084670BD022070BD53
:10117000002C0140000400400008004010B50400AD
:1011800003D094F83D0010B107E0012010BD00200D
:1011900084F83C00204600F01FF8022084F83D004F
:1011A000211D206800F0C0F9012084F8460084F871
:1011B0003E0084F83F0084F8400084F8410084F841
:1011C000420084F8430084F8440084F8450084F821
:1011D0003D00002010BD000008B5006806498842A7
:1011E00008D10648816941F400618161806900F499
:1011F0000060009008BD0000002C0140001002407B
:1012000090F83D10012901D001207047022180F89B
:101210003D1000680B49884208D0B0F1804F05D0DE
:101220000949884202D00949884204D1816801F005
:101230000701062903D0016841F001010160002087
:1012400070470000002C01400004004000080040EE
:1012500070B5044690F83C00012817D0012584F8A9
:101260003C50022084F83D002068826822F077021A
:1012700022F47F4282600868502830D00DDC20289C
:101280004DD005DC98B310283BD148E0022070BD5A
:10129000302844D0402834D139E0602828D0702844
:1012A00006D0B0F5805F2CD0B0F5005F29D10AE000
:1012B000CB68D1E90121206800F06CF920688168D1
:1012C00041F0770109E0CB68D1E90121206800F005
:1012D00061F92068816841F48041816011E0CA6849
:1012E0004968206800F068F95021206807E016E09E
:1012F000CA684968206800F070F96021206800F031
:1013000053F984F83D50002084F83C0070BDCA6851
:101310004968206800F050F940212068EFE7226812
:1013200001461046EBE7FEE710B516488AB01449AF
:10133000016012210024C0E901144FF48031C0E99A
:1013400003414461047644768476C4760477447716
:10135000FFF7A2F908B172B6FEE701202021CDE91E
:1013600004040890CDE90014CDE90214CDE906404B
:10137000694604480994FEF7A5FF0AB010BD0000B5
:10138000006400402C0000202DE9F04385B00024CB
:101390002C480094019402940394816941F0100157
:1013A0008161816901F010010491816941F020019E
:1013B0008161816901F020010491816941F004019A
:1013C0008161816901F004010491816941F00801A2
:1013D000816180691C4F00F008004FF400550490B3
:1013E000002229463846FFF781FBDFF860800022A3
:1013F00008214046FFF77AFBDFF8549000223021A5
:101400004846FFF773FB0095022601250396CDE9B8
:10141000015469463846FFF771FA0820CDE9000506
:10142000CDE9024669464046FFF768FA3020CDE92B
:101430000005CDE9024669464846FFF75FFA05B068
:10144000BDE8F08300100240001001400008014098
:10145000000C014010B586B0002417480094019498
:101460000294039404941349059401604721C0E950
:1014700001144FF6FF71C0E9031444618461FFF762
:101480007DFE08B172B6FEE74FF4805000906946C9
:101490000948FFF7DDFE08B172B6FEE7049404A91F
:1014A00005480594FFF736FE002801D072B6FEE726
:1014B00006B010BD002C014070000020FEE7FEE7E2
:1014C00070477047FFF71EBB30B58FB028216846C4
:1014D000FEF77AFE14210AA8FEF776FE0121080421
:1014E000CDE900100024029402250491CDE90750B3
:1014F0004FF4E01009906846FFF768FC08B172B637
:10150000FEE70F20CDE90A054FF48060CDE90C40DD
:1015100002210AA80E94FFF78DFB002801D072B6B5
:10152000FEE70FB030BD7047F0B50268164B174CA0
:10153000174D4FF08047984205D0B84203D0A042E3
:1015400001D0A84203D122F070064A683243984283
:1015500005D0B84203D0A04201D0A84203D122F462
:101560004074CA6822434C6922F080022243026020
:101570008A68C2620A688262984201D1096901637D
:1015800001214161F0BD0000002C01400004004039
:101590000008004010B5846842EA032224F47F4426
:1015A0000A432243826010BD826822F070020A431F
:1015B00042F007018160704710B5036A046A24F0A5
:1015C00001040462846924F0F00444EA021423F064
:1015D0000A020A438461026210BD10B5036A23F057
:1015E000100303628369046A23F4704343EA0232FE
:1015F00024F0A00343EA01118261016210BDFEE7FD
:101600000907090E002804DB00F1E02080F800142F
:10161000704700F00F0000F1E02080F8141D7047C3
:10162000FFF778FAFFF750FFFFF7AEFEFFF77CFEFB
:101630001348FFF71DF910211148FEF730FEFFF7A0
:1016400009FF0F484430FFF7DBFD6FF01D0000F08D
:1016500029F80C4F0C4D4FF400564FF00008A868C5
:101660000028FCD0002431463846FFF737FAC8205E
:10167000FFF732F9641C142CF5DBC5F80880EEE79F
:101680002C0000200010014000000020044900222E
:101690000B685A6209684A6A8242FCD370470000AC
:1016A0007000002070B500265A212A4D2A4C0028CF
:1016B00029DD40F6180200FB02F090FBF1F02061FA
:1016C0004FF001024FF010012846FFF70FFA666055
:1016D00014E0002220212846FFF708FA208880B273
:1016E000FFF7D4FF012220212846FFF7FFF92088C9
:1016F00080B2FFF7CBFF6068401C606060682169C2
:101700008842E6DB70BDFDDA144A504390FBF1F0ED
:101710002061002210212846FFF7E8F9666014E0F6
:10172000002220212846FFF7E1F9208880B2FFF748
:10173000ADFF012220212846FFF7D8F9208880B28A
:10174000FFF7A4FF6068401C606060682169884200
:10175000E6DB70BD000C014000000020E8F7FFFF51
:101760000000000000000000010203040607080951
:1017700090170008000000202C000000280100083D
:10178000BC1700082C000020EC06000044010008F3
:10179000C800000000000000000000000000000081
:1017A0000000000000000000000000000100000038
:0C17B00010000000000000000024F40005
:04000005080000ED02
:00000001FF
